:020000040000FA
:10000000804F002025020000650200000902000068
:10001000690200006B0200006D0200000000000099
:100020000000000000000000000000006F0200005F
:100030007102000000000000730200007502000061
:1000400077020000770200007702000077020000CC
:1000500077020000770200007702000077020000BC
:1000600077020000770200007702000077020000AC
:10007000770200007702000077020000770200009C
:10008000770200007702000077020000770200008C
:10009000770200007702000077020000770200007C
:1000A000770200007702000077020000770200006C
:1000B000770200007702000077020000770200005C
:1000C000214900004149000077020000770200004A
:1000D000C9490000F149000035190000770200000D
:1000E0007702000077020000CD15000077020000C3
:1000F000770200007702000077020000770200001C
:10010000194A000077020000770200007702000021
:1001100077020000770200007702000077020000FB
:1001200077020000770200007702000077020000EB
:1001300077020000770200007702000077020000DB
:1001400077020000770200007702000077020000CB
:1001500077020000770200007702000077020000BB
:1001600077020000770200007702000077020000AB
:10017000770200007702000077020000770200009B
:10018000770200007702000077020000770200008B
:10019000770200007702000077020000770200007B
:1001A000770200007702000077020000770200006B
:1001B000770200007702000077020000770200005B
:1001C000770200007702000077020000770200004B
:1001D000770200007702000077020000770200003B
:1001E000770200007702000077020000770200002B
:1001F00077020000DFF80CD000F010FD0048004747
:10020000C1600000804F002004207146084202D0E7
:10021000EFF3098001E0EFF308807146004A1047D0
:10022000F918000014484FF0590101604FF0160111
:1002300001604FF0880101601048416841F480413D
:1002400041600F48416841F002014160416841F05E
:10025000040141600B48804707484FF000010160EE
:1002600009480047FEE7FEE7FEE7FEE7FEE7FEE798
:10027000FEE7FEE7FEE7FEE7000100400002004067
:1002800000700040F9470000F50100000048704789
:10029000286E000010B50446FFF7F8FF0068005D07
:1002A00000F0010010BD40EA01039B0703D009E004
:1002B00008C9121F08C0042AFAD203E011F8013B52
:1002C00000F8013B521EF9D27047D2B201E000F8AB
:1002D000012B491EFBD270470022F6E710B51346EA
:1002E0000A4604461946FFF7F0FF204610BD30B518
:1002F00005462A460B4612F8010B13F8014B08B1CC
:10030000A042F8D01CB1002802D06D1CF1E72846AD
:1003100030BD10B5044604E00B7800F8013B03B192
:10032000491C521EF8D2204610BD421C10F8011B79
:100330000029FBD1801A7047034611F8012B00F801
:10034000012B002AF9D118467047000070B50F4DF7
:1003500000B92868002412E00A4602E09E4203D059
:10036000521C1378002BF9D1DAB2224305D02BB1FD
:1003700024B1002100F8011B04E00446401C06786B
:10038000002EE9D12860204670BD0000F00E00204C
:100390000FB400B58DB010A909900B9000914FF0EB
:1003A000FF300A9000200C90054806900548079001
:1003B0006A4609A80F9900F057FB0DB05DF814FBD1
:1003C000850A0000A30A00002DE9FF5F1D464FF0DB
:1003D000FF3BD5E9014691465F464FF00008A96909
:1003E0007F1C01988847296A824688470028F6D1F1
:1003F000BAF1FF3F0CD024F4C064002E19DD600672
:1004000014D5BAF12B0F09D0BAF12D0F0ED103E09C
:10041000584604B0BDE8F09F44F48064A9697F1C8D
:1004200001988847761E8246002E02DDBAF1300F11
:1004300003D0B9F1000F26D032E0A969761E44F44A
:1004400000747F1C019888478246002E05DDBAF1B2
:10045000780F06D0BAF1580F03D0B9F1000F10D0C1
:100460001EE0B9F1000F02D0B9F1100F18D1A9693F
:10047000761E24F400747F1C019888478246102061
:1004800002E0082000E00A20814609E008FB090894
:10049000A969761E44F400747F1C0198884782463F
:1004A000002E05DD4946504600F0CAFA0028EDDA74
:1004B000E96901988847A00502D46FF00100A8E718
:1004C000E00725D1600613D5600502D5C8F100000C
:1004D00000E0404629680A1D2A600968220501D506
:1004E000087015E0220701D5088011E008600FE0D0
:1004F0002868011D29600068210502D580F8008068
:1005000006E0210702D5A0F8008001E0C0F80080D5
:1005100038467EE72DE9FE4F804681EA0300C00F92
:100520000C46009021F0004123F00045B8EB02009A
:10053000A94105D24046214690461C460B4602463C
:1005400023F00040104347D0270DC7F30A00C3F340
:100550000A510290401A019040286BDAC3F313004D
:1005600040F4801B0098924620B10023D2EB030A8E
:1005700063EB0B0B01985946C0F14002504600F066
:100580002EFA06460D4650465946019A00F046FAA4
:1005900010EB08006141002487EA115284EAE773F6
:1005A0001A4340D0009A62B3019A012A4FEA0752D7
:1005B00015DC001B61EB02014FF0004202EA07521A
:1005C000CDE90042001C41F5801132462B4600F077
:1005D000BFFA03B0BDE8F08F40462146F9E7001BA3
:1005E00061EB0201001C41F5801300185B412018EB
:1005F000A2F5001747EB030140EAD570B6196D412B
:1006000011E06D084FEA360645EAC0754FEA075219
:10061000001B61EB0201001C41F5801149084FEA03
:1006200030000019514132462B4603B0BDE8F04F6F
:1006300000F07FBA0098012240000023D0EB0202B4
:1006400063EBE073009821464FEAE074B8EB0000DA
:1006500061EB0401E9E783F000435BE781F00041CF
:1006600058E72DE9FE4F81EA030404F0004421F02D
:10067000004100944FF0000B23F0004350EA0104C6
:100680005ED052EA03045BD0C3F30A54C1F30A55A7
:100690002C44A4F2F3340194A0FB0254C1F31301DF
:1006A00041F48011C3F3130343F4801301FB0244AC
:1006B00000FB034E840A970A44EA815447EA8357B1
:1006C000A4FB076802958D0A05FB07854FEA932C6A
:1006D00004FB0C542705029D4FEA065847EA1637DB
:1006E000B5EB08056EEB070C870E920E47EA8117F3
:1006F00042EA8312A7FB0201B6EB0B0164EB000494
:100700002B0D43EA0C335E1844EB1C50DA4651467D
:10071000E7FB0201C5F313044FEA0B3343EA14531A
:100720004FEA0432019C43EA0603A4F10C0402944C
:10073000009CCDE900B400F00BFA03B0BDE8F08FE7
:1007400000200146F9E72DE9F04D81EA030404F0A9
:10075000004B21F0004514464FF0000A23F0004101
:1007600050EA050220D054EA01021DD0C5F30A5711
:100770000246C5F31303C1F31300C1F30A5640F454
:10078000801543F48013A7EB0608101BD64608F229
:10079000FD3873EB050002D308F1010801E092185F
:1007A0005B41B8F1000F03DA00200146BDE8F08D8F
:1007B00000204FF48011064684460EE0171B73EBB1
:1007C000050705D3121B63EB050306434CEA010C36
:1007D00049084FEA300092185B4150EA0107EDD119
:1007E00052EA030012D082EA040083EA05010843BA
:1007F00005D0101BAB4106D20122002306E00022E7
:100800004FF0004302E06FF0010253101AEB0600B4
:100810004CEB085110EB0A0041EB0B01BDE8F04D29
:1008200000F087B90EB5C10F80EAE0700844CA072E
:10083000002140F233438DE80E000A460B4600F0DB
:1008400087F903B000BD0EB540F23341029100219B
:10085000CDE900110A460B4600F07AF903B000BD5D
:10086000C1F30A5210B5C1F3130140F2FF3341F452
:1008700080119A4201DA002010BD40F233439A42BF
:10088000A2F2334203DC524200F0B8F810BD9040AF
:1008900010BD00F0004230F000400AD0C10D01F55B
:1008A0006071C0F3160042EA0151C20840071143CB
:1008B000704700200146704730B5041E71F10004F6
:1008C00004DB4FF00044404264EB0101141E73F15D
:1008D000000405DB1C464FF00043524263EB040367
:1008E0008B4208BF824230BD30B5041E71F1000456
:1008F00004DB4FF00044404264EB0101141E73F12D
:10090000000405DB1C464FF00043524263EB040336
:10091000994208BF904230BD01F0004330B421F04D
:10092000004150EA010206D00A0DA2F56072C1F33F
:100930001301002A02DC30BC00207047440F44EA57
:10094000C104C100E01830BC00EBC25000F0BAB8DE
:1009500030B50B46014600202022012409E021FA8F
:1009600002F59D4205D303FA02F5491B04FA02F58C
:100970002844151EA2F10102F1DC30BD2DE9F05F23
:100980000546002092469B468846064681464024FE
:100990001BE0284641464746224600F02FF85346C2
:1009A0005A46C01A914110D311461846224600F00B
:1009B00016F82D1A67EB01084F4622460120002148
:1009C00000F00DF817EB00094E41201EA4F10104C0
:1009D000DFDC484631462A464346BDE8F09F202AE0
:1009E00004DB203A00FA02F1002070479140C2F186
:1009F000200320FA03F3194390407047202A04DBB8
:100A0000203A21FA02F00021704721FA02F3D04087
:100A1000C2F120029140084319467047202A06DBA4
:100A2000CB17203A41FA02F043EAE07306E041FABC
:100A300002F3D040C2F120029140084319467047AA
:100A40003A2800D2303820F02002412A01D3A2F106
:100A50003700884201D34FF0FF30704702681144DD
:100A60001378016018467047D16004495161044908
:100A7000116200211161114600F0E2B85D0A000028
:100A800095020000426842B1016811F8013B23B1B0
:100A9000521EC0E90012184670470121C160881E2D
:100AA000704742685AB1C368016843B983688B4292
:100AB00005D0491E521CC0E90012002070474FF0BB
:100AC000FF3070470029A8BF7047401C490008BF8D
:100AD00020F00100704710B4B0FA80FC00FA0CF06E
:100AE00050EA010404BF10BC704749B1CCF12004A6
:100AF00021FA04F411FA0CF118BF01212143084333
:100B0000A3EB0C01CB1D4FEA00614FEA102042BF5E
:100B1000002010BC704700EBC35010440029A4BF54
:100B200010BC7047401C490008BF20F0010010BCF9
:100B3000704710B5141E73F1000408DA401C41F12F
:100B4000000192185B411A4301D120F0010010BD51
:100B50002DE9F04D92469B4611B1B1FA81F202E0C7
:100B6000B0FA80F220329046FFF739FF04460F4674
:100B700040EA0A0041EA0B0153465A46084313D0A3
:100B8000114653EA010019D0C8F140025046FFF760
:100B900035FF05460E46504659464246FFF71FFFB1
:100BA000084305D0012004E020463946BDE8F08D19
:100BB0000020054346EAE0762C4337430A98630554
:100BC000E40AA0EB08000022FD0A44EA47540A3078
:100BD00002D500200146E9E7010510196941DDE968
:100BE000084500196941BDE8F04DA2E7C1F30A527A
:100BF000C1F3130140F2FF3341F480119A4202DA4B
:100C000000200146704740F233439A42A2F2334239
:100C100002DC5242FFF7F2BEFFF7E1BE064C074D81
:100C200006E0E06840F0010394E8070098471034BC
:100C3000AC42F6D3FFF7E2FAC0700000E0700000AB
:100C40002DE9F34F8BB04FF0000801F10C000C467A
:100C50004FF0010B46460DF1080A0190626901212F
:100C600001989047051E2DD0252D2CD0216A88474C
:100C7000C0B16269012101989047216A8847002824
:100C8000F7D1411E62690198904700E0761CA16986
:100C90000B988847216A88470028F7D1E1690B98AB
:100CA0008847DBE7A1690B9888470746A84201D12E
:100CB000761CD3E7E1690B9888477F1C02D1B8F115
:100CC000000F6FD046E1002762693D463946019822
:100CD00090472A2804D16269012101989047012593
:100CE000DFF884926269012101989047A0F13001F8
:100CF0000A290AD24F45E5DC07EB870100EB4107E3
:100D0000303FDFD445F01005ECE7E90601D46FF081
:100D100000476C280AD04C2814D0682815D06A28BF
:100D20000DD074281CD07A281AD01DE062690121E8
:100D3000019890476C2802D045F0040514E045F076
:100D400002050DE045F020050AE0626901210198E5
:100D50009047682802D045F0080505E045F4006595
:100D60006269012101989047C4E9015765283DD087
:100D700019DC58287AD00CDC452837D004DC25282B
:100D800026D0412831D131E046282FD047282CD118
:100D90002CE05B2877D0612828D063287CD0642899
:100DA00023D15AE0D0E06F2848D008DC66281DD057
:100DB00067281BD0692821D06E2816D127E070281B
:100DC00045D0732868D0752847D078280DD14DE0DC
:100DD000A1690B988847054625283FF469AFE1696A
:100DE0000B9888476D1C3FF46AAFB3E023466A4610
:100DF0006FF001000B99AFF300809EE045F04000DA
:100E00006060A80723464FF0000236D43EE0E807B2
:100E10007FF447AF2068011D21600068290501D5D6
:100E200006701BE7290701D5068017E7A90703D538
:100E3000F117C0E9006111E706600FE745F04000D7
:100E40006060A80723464FF0080216D41EE040F663
:100E50000E0125EA0100606016E045F04000606088
:100E6000A80723464FF00A0207D40FE045F04000E0
:100E70006060A80708D5234610226FF001000B9987
:100E8000AFF3008059E007E0234610226FF0010025
:100E90000B99FFF799FA50E04FF000094F464B4687
:100EA000632802D05B2806D040E0E80601D4012088
:100EB000A06001273AE062690121019890475E280D
:100EC00005D14FF0010962694946019890472169AF
:100ED00039B900210A46534643F82120491C082904
:100EE000FADBB0B3216969B9C11700EBD1625311C4
:100EF0000AEB830122F01F02821A01200B68904046
:100F000003430B6062690121019890475D28E8D195
:100F1000B9F1000F09D00020514651F82020D243EA
:100F200041F82020401C0828F7DB02AB224600973E
:100F30006FF001000B99AFF3008000280CDA401C21
:100F400008D1BBF1000F05D04FF0FF300DB0BDE868
:100F5000F08FFFE74046F9E7E90701D108F1010802
:100F600006444FF0000B79E6CCCCCC0C10B51D4CF0
:100F70000021204600F046FB0623002219462046A9
:100F800000F030FB052300221946204600F02AFB22
:100F9000042300221946204600F024FB03230022EC
:100FA0001946204600F01EFB022300221946204667
:100FB00000F018FB012300221946204600F012FB26
:100FC0000120C4F8F800206D40F004002065D4F83A
:100FD000D00040F04000C4F8D000BDE810402A2006
:100FE00000F0ACBD0030044010B502780A21B2FB1D
:100FF000F1F3B2FBF1F401FB142242EA0311017098
:1010000010BD4FF08040D0F8401241F48031C0F85C
:101010004012704700F01F0201219140034A800FE7
:1010200002EB800002680A4302607047040200403D
:101030002DE9F84F0D460446FFF7E3FF4FF08040DF
:10104000484ED0F80012C4B141F00401C0F80012BB
:10105000102000F009FA4FF4002000904248434964
:101060002844B34688426DD84FF000094FF0FF3254
:101070004F464E46AE46012015E041F00101C0F852
:101080000012012000F0F0F90020E6E7F2B3032897
:1010900039D0042802D0022805D102E04FEA8E059B
:1010A00001E04FEA4E0502236AB3BBFBF3F1304C7B
:1010B000DFF8BCC00C44CCF1000C644520D80224FD
:1010C000C1F35D0ADFF8A0C00AFB04F101EB0C08D4
:1010D000DFF8A0C0E0450ED8B1EB950F02D9A1EB27
:1010E000950101E0C1EB9501914204D20A009946B5
:1010F0002746064604D040F20121641C8C42E1D907
:101100005B1C202BD0D9401C042800E000E0BDD996
:101110001948009900EB8630184A084302EB492130
:101120000843B91E08434FF08041C1F84002042033
:1011300000F09AF906FB09F6BBFBF6F07843400095
:10114000BDE8F88F5CB10E494FF08040C0F8401206
:10115000042000F089F9BDE8F84F00F081B844F2AE
:101160001E21F1E7001BB700800F05FD8074D21A25
:1011700000F7C2FFC068780400C0FFFF00FEFFFF59
:101180001E4208004FF08041D1F800220243C1F80E
:101190000022704710B503F00BFB4FF08041D1F8EF
:1011A00034024207134817D0D1F8342202F0070264
:1011B000012A13D0D1F8342202F00702022A10D0FB
:1011C000D1F8342202F00702032A0DD0D1F83412EC
:1011D00001F0070104290AD0006810BD006840082A
:1011E00010BD0068800810BD0068C00810BD006810
:1011F000000910BD0000002010B503F0D9FA4FF02F
:101200008041D1F8340210F0700F144817D0D1F893
:101210003422C2F30212012A13D0D1F83422C2F3CD
:101220000212022A10D0D1F83422C2F30212032A89
:101230000DD0D1F83412C1F3021104290AD000688C
:1012400010BD0068400810BD0068800810BD00682F
:10125000C00810BD0068000910BD0000000000209B
:1012600008B510A10020096800914FF08041D1F825
:10127000401211F4A02F13D10B488A0310D4C1F3EC
:101280000800C1F38132094B801C1DF80220C1F314
:1012900044215843491C11FB02F1B0FBF1F0C0009E
:1012A00008BD000001020204001BB700C0C62D00EB
:1012B00070B54FF080440646D4F8500200F0100597
:1012C0001B48864200D90646D4F8000240F00400CC
:1012D000C4F80002102004F5007400F0C5F820697D
:1012E00040F007002061206A20F00F002062206893
:1012F000A4F50074C007314604D00020FFF798FE23
:10130000064608E04FF40020FFF792FE0646D4F8A8
:10131000500200F010050021022000F00BF82DB95A
:10132000D4F8000220F00400C4F80002304670BD7A
:1013300000B0710B2DE9F0414FF080440746D4F81E
:1013400050020E4600F01005D4F8000240F00400F0
:10135000C4F80002102004F5007400F085F820693C
:1013600040F007002061206A20F00F003043206227
:10137000206920F0070038432061A4F5007403F0D1
:1013800017FA002D05D1D4F8000220F00400C4F8AB
:101390000002BDE8F0810000F0B510F47F3F2ED0D0
:1013A0004FF08043D3F8F431DFF878C0DFB21D4B43
:1013B000C0F381440C3B6FEA90450CF1040603EB4B
:1013C0008403012F02D0022C0DD001E0022C02D0A8
:1013D000AC070AD00AE0C343DC06134B06D000F08A
:1013E0001F041D2C02D0634600E033461C68C0F386
:1013F0008725C0F34416B540AC4314431C60420E2D
:1014000052070ED0084BC0F30172183B03EB820267
:101410001368C0F34264C0F304508440A3430B43F9
:101420001360F0BD2C0200402802004070B50D4A48
:101430000B490526146800254FF0E022884201D9A7
:10144000401A01E00146002001FB04F3536195615D
:1014500016611369DB03FCD515610028EED170BD60
:10146000555505000400002070B505460B480C4E8C
:101470000124006841080020A207306001E0491EF5
:1014800006D0D2F8503235EA0300F8D109B103E0B2
:1014900000244FF0FF303060204670BD0000002077
:1014A000D80E00200A4810B540680A49884204DB7B
:1014B00009A000F071F8032010BD0D49884204DC3A
:1014C0000CA000F069F8022010BD002010BD000043
:1014D000C00F00200000DC420A0D576F726B696E6E
:1014E00067206F6E20332070686173650A0D0000FD
:1014F0000000DA420A0D576F726B696E67206F6EDB
:1015000020322070686173650A0D000070B54FF0DD
:10151000402401221F21204600F0D8F91B4D002253
:10152000F021284600F0D2F900220C21284600F0D4
:10153000CDF9164E0022C0363021304600F0C6F9F3
:1015400001224FF47061204600F0C0F901224021D1
:10155000304600F0BBF940F61F71204600F0AAF9B2
:10156000FC21284600F0A6F97021304600F0A2F9CF
:10157000074900200860064908390860091D08600D
:1015800003490C3908600349086070BD8040004081
:101590002C480040584900400FB40B4810B54FF498
:1015A00080642146FEF798FE03AB21460648029A66
:1015B00003F0F8FE0448FEF7B8FE0146024804F0C6
:1015C00051FC10BC5DF814FB9B1100200349012065
:1015D00088640349C1F8F800704700002C0000201F
:1015E0000030044010B500EB810050F8801F044C1F
:1015F0002140016001681A431143016010BD0000E1
:10160000C0FFE0FF10B50D4A0D4B002412681C60AE
:10161000046D24F480740465046D41F001010C43F1
:10162000046501E0521E04D0D0F81011C907F9D0AA
:1016300010BD4FF0FF30186010BD0000000000200A
:10164000DC0E00200248016821F0010101607047B2
:1016500000C00040154B0021B0F5001F196019D0E3
:10166000134A2221D16050600120106111480168A5
:101670000A20B1FBF0F08100081EA1F1010103DD99
:10168000D2F8C000C007F7D14FF0FF30002903DCCB
:101690001860704700F010B81168490604D5116849
:1016A00041F040011160F3E700207047E00E002098
:1016B00000C0004000000020154B0020154A1860B3
:1016C0002220D0604FF40010506013489060012039
:1016D000106112480A210068B0FBF1F08100081E79
:1016E000A1F1010103DDD2F8C000C007F7D14FF02E
:1016F000FF30002901DC186070471168490604D5E5
:10170000116841F040011160F5E7002070470000CA
:10171000E00E002000C0004003AA55000000002099
:101720000248016841F001010160704700C00040BB
:101730000E4B0F4900221A60CA6048600120086100
:101740000C480A220068B0FBF2F04000021EA0F133
:10175000010003DDD1F8C020D207F7D1002803DC57
:101760004FF0FF301860704788687047E00E002027
:1017700000C000400000002070B505460E46002461
:101780004FF44010FFF7D4FF286007480068002896
:1017900008D1022E01D2841E03E00448FFF7C8FFDF
:1017A0006860204670BD0000E00E0020040030009C
:1017B000144B10B500221A60134A2124D4605060E3
:1017C00091600120106111480A210068B0FBF1F01E
:1017D0004100081EA1F1010103DDD2F8C000C007DD
:1017E000F7D14FF0FF30002901DC186010BD116CFB
:1017F000490604D5116C41F040011164F5E7002061
:1018000010BD0000E00E002000C0004000000020DD
:101810002DE9F04F244D06468846286840F0100018
:101820002860AF013846FFF715FF4FF0FF3B10B1BE
:101830005846BDE8F08F3846FFF77AFF401C25D1A7
:101840001A48FFF775FF401C20D11848001DFFF70C
:101850006FFF4AF2A651C84218D115480168A9B9CC
:101860000024B946824617E009EB840056F824109C
:101870000746FFF79DFF48B93846FFF759FF56F86E
:101880002410884202D1DAF8000020B1286820F044
:1018900010002860CCE7641C4445E5D3286820F09C
:1018A000100028600020C4E700C0004004003000A1
:1018B000E00E0020826901238B409A438261C26955
:1018C0004FF001138B409A43C2617047F0B500237B
:1018D0000127032507FA03F48C4309D106685C004D
:1018E00005FA04FC26EA0C0602FA04F42643066014
:1018F0005B1C102BEED3F0BD044603A003F02EFDBD
:10190000204605F075F9FEE7496E204861726420B3
:101910004661756C742048616E646C65720A0000E3
:10192000017801F00F02090901EB810102EB41018D
:10193000017070470749C8684A69D243D20705D089
:1019400005498A68002A04D089680847084600F0DB
:1019500021B8704700000840E40E00200A4B58717F
:10196000D970002119701A710848986008480268F7
:1019700022F03C0242F02002026018780028FCD0DD
:101980001970597070470000E40E00205D1A0000C5
:1019900000000840416941F00101416170470000C9
:1019A00030B52B4B2B4A0828597922D0182822D041
:1019B000202825D0282829D0012510282CD04028DF
:1019C00040D01946244CC979582828D0502816D11F
:1019D00090686054491CC8B2D871012832D0597837
:1019E000401E81422BDA106820F03C0040F00C00D1
:1019F00004E0480000E09878906023E0106030BD7B
:101A0000106820F03C0040F03800F7E7106820F044
:101A10003C0040F02800F1E705EB4100ECE790685E
:101A20009871012903D09068214401F8010C1068D5
:101A300020F03C0040F0180010601D7030BD597857
:101A40008142FBD1106820F03C0040F00800D5E74F
:101A5000E40E002000000840744700201649174A91
:101A6000082810D0182811D0202818D0282809D1EB
:101A70005078D0B1086820F03C0040F018000860B1
:101A80000120107070475079400000E0D0788860E5
:101A9000086820F03C0040F00800086070470868C3
:101AA00020F03C0040F03800F7E71079886050786B
:101AB000401C5070ECE7000000000840E40E0020DD
:101AC000094A50719170094890600948016821F0F5
:101AD0003C0141F02001016010780028FCD000207A
:101AE0001070907970470000E40E0020A1190000EA
:101AF0000000084010B5104C012291032046FFF76A
:101B0000E5FE0122D1032046FFF7E0FE0122D102CB
:101B10002046FFF7DBFE012291022046FFF7D6FEAA
:101B2000012251022046FFF7D1FE20460122BDE8E6
:101B300010401102FFF7CABE4040004000F01F02F3
:101B4000012191404009800000F1E020C0F800111F
:101B5000704700002DE9F04F2DED048BC3B0C82174
:101B600004A8FEF7B9FBF54C207824280DD0C82135
:101B700004A8FEF7B1FBC8212046FEF7ADFB43B039
:101B80000020BDEC048BBDE8F08FEC48FEF7CDFBE8
:101B9000821E611C04A8FEF786FBC821E748FEF7F9
:101BA0009BFB04AC2046FEF7C0FBE54D002681B24E
:101BB000EE810AE02078A0F14102192A01D82030F4
:101BC0002070E889401CE881641CE8898842F1D3D0
:101BD000DCA104A8FEF7BAFB0146B0466E80DFF830
:101BE0006893AA4610E0BAF80200544600EB80025F
:101BF00009EB8200FEF7A0FB6088D2A1401C608048
:101C00000020FEF7A3FB01460029ECD1CE49CFA06E
:101C1000FFF7C2FCCC49CDA003F0A0FBD04803F0F5
:101C20009DFBD0A1C848FEF762FB10B1CF4804F07D
:101C3000ADFCCFA1C448FEF75AFB10B1CB4804F06D
:101C400007FCCDA1C048FEF752FB10B1C74804F015
:101C50009DFCCBA1BC48FEF74AFB10B1C34804F081
:101C6000F7FBC9A1B848FEF742FB002841F0E58424
:101C7000C7A1B548FEF73BFBB14CC74E803C0125E0
:101C800018B1A574B57301F0D8BCC4A1AE48FEF775
:101C90002EFB48B1B24934221C3136A8FEF703FBB3
:101CA00036A802F083FFEEE7BEA1A748FEF71FFBB0
:101CB00010B104F039FEE6E7BCA1A348FEF717FB1C
:101CC000A149BD4F01F1280214310092369100283C
:101CD0007CD001F021FF369804F06CFD51EC100B24
:101CE000FEF71AFE09EE100A009804F063FD51ECAD
:101CF000100BFEF711FE08EE900A93483C3004F0FA
:101D000059FD51EC100BFEF707FE08EE100A18EE15
:101D1000100AFEF7BEFD8046894618EE900AFEF7CF
:101D2000B8FD04460D4619EE100AFEF7B2FD8DE827
:101D3000300341EC100BA1A053EC102BFFF72CFC4F
:101D4000A14C94ED000AC9EE009A19EE900AFEF734
:101D5000A0FD41EC100B97ED381B53EC102B8DEDD3
:101D6000001B9AA0E037FFF717FC19EE900AFEF768
:101D700090FD97ED001B53EC112BFEF772FCC7E9A9
:101D80000001D4ED010A88EEA00A10EE100AFEF759
:101D900080FD97ED021B53EC112BFEF762FCC7E9A7
:101DA0000201D4ED020A88EE200A10EE100AFEF7B6
:101DB00070FD97ED041B53EC112BFEF752FCC7E9A5
:101DC000040103F041F801F0B5BBFFE781A15E48D3
:101DD000FEF78DFA20B1369804F06CF8012871D026
:101DE0007DA15948FEF783FA9FED7D8B20B15648BF
:101DF000FEF79BFA0C287CD07BA15348FEF777FABC
:101E000020B15148FEF791FA0C2873D078A14E48C2
:101E1000FEF76DFA20B14C48FEF787FA0C286AD01D
:101E200075A14948FEF763FA20B14748FEF77DFAED
:101E30000C287DD072A14448FEF759FA20B14248DF
:101E4000FEF773FA0D2874D06FA13F48FEF74FFAE2
:101E500020B13D48FEF769FA0D286BD06CA13A48D5
:101E6000FEF745FA002866D001F056FE99F80810F2
:101E700099F80930303901EB8101303B03EB410126
:101E8000B97199F80A1099F80B30303901EB8101DA
:101E9000303B03EB4101F97199F80C103039AAF885
:101EA000061099F80D0001EB81013038AAF80C00FA
:101EB00000EB4100387202F093FE707C01283BD0A9
:101EC00081E7FFE755A03699FFF766FB39AB38AAE3
:101ED00037A93CA88DE80F003BAB3AAA53A136982E
:101EE000FEF756FA379847B2389867F3070942B2B7
:101EF00002E0DAE019E15AE1399862F30F2943B2BE
:101F00003C9863F3174941B23B9861F31F6940B2B3
:101F1000CDF80490039260F3070881463A988B4607
:101F20004FFA80FC02936CF30F28E24639468DE0AD
:101F30007FE1C0E1EDE11CE219E20000F80E0020B3
:101F4000F80000202C000000513A00200A554152B0
:101F50005420444154413A7B25737D0A000000001F
:101F6000046D00006D6F746F726F6E00871100203A
:101F70006D6F746F726F66006D74726F6E0000002B
:101F80006D74726F660000002B727864746D660069
:101F900064656275676F6E0040110020746573742C
:101FA0003100000070726F6473657400766F6C743A
:101FB000616763616C000000E80F002025662C2536
:101FC000662C256600000000C00F00203A25662C14
:101FD00025662C00647400006472616D70733300B8
:101FE00000000000000024406472616D70733200D4
:101FF0006F6C616D707333006F6C616D7073320064
:102000006F6E64656C617900736464656C617900FE
:1020100073666264656C6179000000000A0D4426F5
:10202000543A5B25735D0A0D0000000025303264D0
:102030002F253032642F253032642F253032642F23
:10204000253032642F25303264000000ECA0CDF83A
:102050000080FFF7A1FA53464A465946F1A0FFF720
:102060009BFA002F05DA0398002802DA029800286C
:1020700008DBBBF1000F05DDB9F1000F02DDBAF19D
:10208000000F01DCEDA008E0DDE9001002F038FBF4
:10209000002801DAF1A000E0F6A0FFF77DFA707CDD
:1020A000012841F0CA822920F0E301F035FD99F8BA
:1020B00007004FF47A73303881B2AAF8061099F805
:1020C00008005943303880B2AAF8080099F809C0CE
:1020D00000EBC003ACF1300C1FFA8CFCAAF80AC06C
:1020E00099F80B2003EB0010303A01EB800092B21C
:1020F0000CEB8C0100EB4100AAF80C201044FEF719
:10210000A2FB53EC182BFEF71EFB41EC100BE0A0DA
:1021100087ED220B53EC102BFFF73EFA02F094FEF2
:10212000707C01287ED13F20FEE301F0F5FC99F898
:1021300007004FF47A73303881B2AAF8061099F884
:1021400008005943303880B2AAF8080099F809C04D
:1021500000EBC003ACF1300C1FFA8CFCAAF80AC0EB
:1021600099F80B2003EB0010303A01EB800092B29B
:102170000CEB8C0100EB4100AAF80C201044FEF798
:1021800062FB53EC182BFEF7DEFA41EC100BCDA0EE
:1021900087ED200B53EC102BFFF7FEF902F054FEF5
:1021A000707C0128BED13E20BEE725750BE601F00C
:1021B000B3FC99F807004FF47A73303881B2AAF86B
:1021C000061099F808005943303880B2AAF8080080
:1021D00099F809C000EBC003ACF1300C1FFA8CFC7D
:1021E000AAF80AC099F80B2003EB0010303A01EB73
:1021F000800092B20CEB8C0100EB4100AAF80C209D
:102200001044FEF720FB53EC182BFEF79CFAC7E9AD
:102210002A0102F019FE707C0128C7D146202070E7
:10222000257500E0F4E297ED280BB3A053EC102BDA
:102230003EE001F071FC99F807004FF47A733038F2
:1022400081B2AAF8061099F808005943303880B2D4
:10225000AAF8080099F809C000EBC003ACF1300CF3
:102260001FFA8CFCAAF80AC099F80B2003EB0010A7
:10227000303A01EB800092B20CEB8C0100EB410094
:10228000AAF80C201044FEF7DEFA53EC182BFEF7E8
:102290005AFAC7E9280102F0D7FD707C012885D1E0
:1022A00045202070257597ED280BA0A053EC102B2E
:1022B000FFF772F987E501F02FFC99F8071099F8FC
:1022C0000830303901EB8101303B03EB41013970BB
:1022D00099F8091099F80A30303901EB8101303B47
:1022E00003EB4101797099F80B103039AAF8061008
:1022F00099F80C0001EB81013038AAF80C0000EBD2
:102300004100B87002F0A0FD707C0128D2D11320EA
:102310000AE701F001FC99F8071099F80830303904
:1023200001EB8101303B03EB4101F97099F8091091
:1023300099F80A30303901EB8101303B03EB410160
:10234000397199F80B103039AAF8061099F80C0079
:1023500001EB81013038AAF80C0000EB41007871E4
:1023600002F072FD707C0128A4D11420DCE6152057
:10237000DAE67BA17D48FDF7BAFF20B17B48FDF787
:10238000D4FF0E280BD07AA17848FDF7B0FF4FF0AC
:102390002D0B98B301F0C0FB87F84150F7E001F036
:1023A000BBFB99F8081099F80930303901EB81012D
:1023B000303B03EB410107F8421F99F80A1099F8E6
:1023C0000B30303901EB8101303B03EB4101797077
:1023D00099F80C103039AAF8061099F80D0001EBA5
:1023E00081013038AAF80C0000EB4100B87002F00F
:1023F0002BFD707C012889D12E2095E6BEE00000DF
:102400004265666F7265205365742054494D453AA4
:102410005B253032643A253032643A253032645DCF
:102420000A000000444154453A5B253032642D25B2
:102430003032642D253032645D0A00000D0A7B7352
:1024400065742074696D6520666F726D61742065B6
:1024500072726F72217D0D0A000000000D0A7B73FD
:1024600065742074696D65206661696C6564207DA2
:10247000210D0A000D0A7B7365742074696D652057
:10248000737563636573736564217D0D0A000000D5
:102490000A0D20476F742056616C7565206F6620A9
:1024A0006E54696D657253657474696E67732E44FA
:1024B00072416D7073494949203D2025302E3166A7
:1024C0000A0D00000A0D20476F742056616C756577
:1024D000206F66206E54696D657253657474696E01
:1024E00067732E4472416D70734949203D20253039
:1024F0002E31660A0D0000000A0D20476F74205629
:10250000616C7565206F66206E54696D65725365E8
:102510007474696E67732E4F6C416D7073494920F6
:102520003D2025302E31660A0D0000000A0D20479F
:102530006F742056616C7565206F66206E54696DEE
:10254000657253657474696E67732E4F6C416D705C
:10255000734949203D2025322E31660A0D000000C6
:1025600073637264656C617900000000513A002069
:1025700073637264656C61796F6E0000FBA1FE4845
:10258000FDF7B5FE48B101F0C7FA87F8418002F0C7
:102590005BFC707C01287DD015E4F8A1F648FDF7BE
:1025A000A6FE20B1F44803F0A3FC01280CD0F6A14C
:1025B000F148FDF79CFE4FF01C0B78B3369803F002
:1025C00082FC01282BD02FE001F0A6FA99F809101F
:1025D00099F80A30303901EB8101303B03EB4101BE
:1025E000397399F80B1099F80C30303901EB8101EF
:1025F000303B03EB4101797399F80D103039AAF89B
:10260000061099F80E0001EB81013038AAF80C0091
:1026100000EB4100B87397E0172085E504E00098CF
:1026200003F051FC012808D0DBA1D348FDF75FFE81
:1026300088B301F071FAFD75A9E701F06DFA48461B
:10264000524610F8141F4378303901EB8101303BBA
:1026500003EB410139768178C378303901EB810190
:10266000303B03EB41017976017D437D303901EB4D
:102670008101303B03EB41017977817D3039118154
:1026800099F82B0001EB81013038AAF80A0000EB21
:10269000410001E0F7E005E0B87787F81A8087F895
:1026A0001F8074E7BFA1B448FDF721FE20B101F0FF
:1026B00033FA87F817806AE7BDA1AF48FDF717FE28
:1026C00020B1AD48FDF731FE10280BD0BCA1AA48BF
:1026D000FDF70DFE4FF04E0B20B301F01DFA87F809
:1026E000D55054E701F018FA99F80E1099F80D201A
:1026F0003039AAF8061099F80F0064233038AAF888
:102700000C00303A12FB03F201EB810102EB4101B4
:10271000084487F8D60002F097FB707C012877D137
:102720004F2001E5AAA19448FDF7E1FD20B101F099
:10273000F3F987F8D5802AE7A9A18F48FDF7D7FDDF
:1027400048B101F0E9F97D7202F07EFB707C01284E
:102750003FF462AF2AE5A5A18748FDF7C8FD20B187
:1027600001F0DAF987F80980EEE7A3A18248FDF7C6
:10277000BEFD4FF03B0B20B101F0CEF987F875504C
:1027800005E7A0A17C48FDF7B2FD20B101F0C4F936
:1027900087F87580FBE69EA17748FDF7A8FD4FF00E
:1027A0003A0B20B101F0B8F987F87650EFE69CA11A
:1027B0007148FDF79CFD20B101F0AEF987F87680F5
:1027C000E5E69BA16C48FDF792FD4FF0390B20B96F
:1027D0009BA16948FDF78BFD20B101F09DF987F8B9
:1027E0007450D4E69AA16448FDF781FD20B1624897
:1027F000FDF79BFD10280CD098A15F48FDF777FDF1
:102800004FF0500BA0B301F087F987F8D750BEE620
:10281000A1E001F081F999F80A1099F80B303039EC
:1028200001EB8101303B03EB410107F8D81F99F818
:102830000C1099F80D30303901EB8101303B03EB7E
:102840004101797099F80E103039AAF8061099F8FC
:102850000F0001EB81013038AAF80C0000EB4100B9
:10286000B87002F0F1FA707C012874D151205BE459
:10287000FFE77DA14048FDF73AFD40B101F04CF97A
:1028800087F8D78083E684F800B08EE4D5E279A19A
:102890003948FDF72CFD20B13748FDF746FD0B28E0
:1028A0005AD077A13448FDF722FD20B13248FDF718
:1028B0003CFD0B2851D075A12F48FDF718FD20B124
:1028C0002D48FDF732FD0C2848D073A12A48FDF7AA
:1028D0000EFD20B12848FDF728FD0C283FD071A13E
:1028E0002548FDF704FD20B12348FDF71EFD0C2807
:1028F00036D06FA12048FDF7FAFC20B11E48FDF745
:1029000014FD0C282DD06DA11B48FDF7F0FC20B163
:102910001948FDF70AFD0A2824D06AA11648FDF7D8
:10292000E6FC30B1144800E01FE2FDF7FEFC0C2885
:1029300019D066A11048FDF7DAFC20B10E48FDF76A
:10294000F4FC0C2810D063A10B48FDF7D0FC4FF02D
:102950000A0B0028C2E063E1C5E0E5E005E125E1FE
:1029600047E169E189E1A4E1D1E1000073637264A8
:10297000656C61796F660000513A0020647272657F
:1029800073746172740000006379636C69637469C5
:102990006D6F6E6F660000006379636C69636F6EC4
:1029A000000000006379636C69636F6600000000DB
:1029B0006F6C72657374617274766F6C7400000072
:1029C0006F6C72657374617274766F6C746F6E0085
:1029D0006F6C72657374617274766F6C746F66007D
:1029E0006472726573746172746F6E006472726582
:1029F00073746172746F6600766F6C7370706F6E53
:102A000000000000766F6C7370706F66000000004D
:102A100063757272656E747370706F6E0000000083
:102A200063757272656E747370706F66000000007B
:102A30007265766572736570686173656F6E0000AC
:102A40007265766572736570686173656F660000A4
:102A500064726F6363757274696D000064726F6392
:102A60006375726F6E00000064726F636375726FDE
:102A7000660000006C6F77766F6C743200000000A7
:102A80006C6F77766F6C743300000000686967685C
:102A9000766F6C743200000068696768766F6C74DA
:102AA0003300000064696666766F6C743200000063
:102AB00064696666766F6C7433000000696D6276D7
:102AC0006F6C740064727363616E00006F6C73638B
:102AD000616E00007366626F6E0000007DD000F0D2
:102AE000EFFE75704BE101F017F899F8091099F8AD
:102AF0000820303989B2AAF8061099F80A00642330
:102B0000303880B2AAF80C00303A12FB03F201EB25
:102B1000810102EB41010844F86402F095F9707CF0
:102B200001287DD1322020E100F0F6FF99F809104C
:102B300099F80820303989B2AAF8061099F80A00E5
:102B40006423303880B2AAF80C00303A12FB03F24A
:102B500001EB810102EB41010844386502F074F990
:102B6000707C0128DDD13320FFE000F0D5FF99F81B
:102B70000A1099F80920303989B2AAF8061099F894
:102B80000B006423303880B2AAF80C00303A12FBF4
:102B900003F201EB810102EB41010844B86502F048
:102BA00053F9707C0128BCD13520DEE000F0B4FF81
:102BB00099F80A1099F80920303989B2AAF8061054
:102BC00099F80B006423303880B2AAF80C00303A30
:102BD00012FB03F201EB810100E0C7E002EB4101CF
:102BE0000844F86502F030F9707C012899D136204C
:102BF000BBE000F091FF99F80A1099F809203039EC
:102C000089B2AAF8061099F80B006423303880B214
:102C1000AAF80C00303A12FB03F201EB810100E04C
:102C200001E202EB41010844386602F00DF9707CC4
:102C3000012897D1532098E000F06EFF99F80A0020
:102C400099F80920303880B2AAF8060099F80B10DC
:102C50006423303989B2AAF80C10303A12FB03F21F
:102C600000EB800002EB40000844786602F0ECF8CC
:102C7000707C012897D1542077E000F04DFF99F83F
:102C8000080099F80720303880B2AAF8060099F8B1
:102C900009106423303989B2AAF80C10303A12FBBB
:102CA00003F200EB800002EB4000084418E33720F9
:102CB0005BE000F031FF99F8061099F807303039E1
:102CC00001EB8101303B03EB4101397499F80810A5
:102CD00099F80930303901EB8101303B03EB4101B8
:102CE000797499F80A103039AAF8061099F80B008F
:102CF00001EB81013038AAF80C0000EB4100B874F8
:102D000002F0A2F8707C012893D11920F4E300F0BE
:102D100003FF99F8061099F80730303901EB81016B
:102D2000303B03EB410107F8CC1F99F8081099F8E4
:102D30000930303901EB8101303B03EB41017970FF
:102D400099F80A103039AAF8061099F80B0001EB2F
:102D500081013038AAF80C0000EB4100B87002F095
:102D600073F8707C012885D14720C5E3FCA1FE489B
:102D7000FDF7BDFA48B100F0A3FD86F8018001F02F
:102D80002FFF707C012876D08AE2F8A1F648FDF783
:102D9000AEFA4FF04C0B20B100F092FD87F8D35003
:102DA000EDE7F5A1F048FDF7A2FA20B100F088FDAB
:102DB00087F8D380E3E7F3A1EB48FDF798FA4FF0EB
:102DC0000E0B30B100F07CFD35710BE084F800B0E3
:102DD000EAE0EEA1E448FDF78AFA40B100F070FDA8
:102DE00086F8048001F0FCFE00F06AFD35E0E9A100
:102DF000DD48FDF77CFA4FF00D0B18B100F060FDD7
:102E0000F570EFE7E5A1D848FDF771FA20B100F0C1
:102E100057FD86F80380E5E7E2A1D348FDF767FA9E
:102E200068B100F04DFD86F80D8001F0D9FE00F08C
:102E300047FD707C012813D112202070B4E0DBA183
:102E4000C948FDF754FA4FF0110B50B100F038FDAE
:102E5000F57100F035FD01F0C3FE707C0128B5D09E
:102E6000EBE3D4A1C048FDF742FA28B100F028FDF9
:102E700086F80780B6E7AAE3D0A1BB48FDF737FA8A
:102E800048B300F049FE99F8061099F80730303938
:102E900001EB8101303B03EB4101397599F80810D2
:102EA00099F80930303901EB8101303B03EB4101E6
:102EB000797599F80A103039AAF8061099F80B00BC
:102EC00001EB81013038AAF80C0000EB4100B87525
:102ED00009E01B2010E3BBA1A348FDF708FA40B1AD
:102EE00000F01AFEFD7401F0AFFF707C0128F0D0F5
:102EF00020E3B7A19C48FDF7FAF920B100F00CFEE1
:102F000087F81380EFE7B5A19748FDF7F0F9E8B32C
:102F100099F80A104846303989B24A1E5346AAF831
:102F20000E10032A9CD810F8142F394490F801C0D1
:102F3000303A02EB8202ACF1300C0CEB420201F8A9
:102F4000232F8278C778303A02EB8202303F07EBBA
:102F500042024A71027D477D303A02EB8202303FE5
:102F600007EB4202CA73827DD046303A1A8199F843
:102F70002B0002EB82023038A8F80A0000EB420076
:102F8000087501F061FF00F0C7FD00E016E0707CFD
:102F900001280AD1B8F80E00012807D0022807D06E
:102FA000032807D0042807D0257546E3212044E7ED
:102FB000232042E7252040E727203EE78AA16A48F0
:102FC000FDF795F930B100F0A7FD87F822500AE02F
:102FD000202091E286A16448FDF789F948B100F00C
:102FE0009BFD87F8228001F02FFF707C0128EFD035
:102FF000A0E281A15C48FDF77AF930B100F08CFDC8
:1030000087F849500AE0312076E27EA15648FDF764
:103010006EF948B100F080FD87F8498001F014FF97
:10302000707C0128EFD085E279A14F48FDF75FF968
:1030300030B100F071FD87F854500AE034205BE2B3
:1030400076A14948FDF753F948B100F065FD87F8CE
:10305000548001F0F9FE707C0128EFD06AE272A181
:103060004148FDF744F908B300F056FD99F80C10FB
:1030700099F80B20303989B2AAF8061099F80D009A
:103080006423303880B2AAF80C00303A12FB03F205
:1030900001EB810102EB41010844C7F8240101F072
:1030A000D3FE707C0128A3D1662025E261A12E48C1
:1030B000FDF71DF970B300F02FFD99F80B10B8461D
:1030C0003039C7F8281199F80C205746303A92B297
:1030D000AAF8062099F80D00303883B2AAF80C300F
:1030E00057A0FEF759FAD8F828016421FA88484316
:1030F00002EB8201BB8900EB4100C11857A0C8F860
:103100002811FEF749FA01F09FFE707C01288AD150
:103110006720F1E15EA11448FDF7E9F8F0B100F095
:10312000CFFB99F8081099F80720303989B2AAF82E
:10313000061099F809006423303880B2AAF80C0010
:10314000303A12FB03F201EB810102EB410108442A
:10315000F86601F045FD707C01289DE0A1E00000CB
:103160007366626F66000000513A002070666373F8
:1031700065746F6E000000007066637365746F663F
:103180000000000073756D706F6E000073756D70D8
:103190006F66000074616E6B6F6E000074616E6B21
:1031A0006F66000070777276626F66007666626F97
:1031B0006E0000007666626F660000006D617874D4
:1031C000696D00006D617874696D6F6E00000000BC
:1031D0006D617874696D6F660000000072746374CD
:1031E000696D6F6E6F6600007274636F6E00000031
:1031F0007274636F660000006C6F77766F6C746F2B
:103200006E0000006C6F77766F6C746F6600000064
:1032100068696768766F6C746F6E000068696768CC
:10322000766F6C746F660000686964696666766FB5
:103230006C743200686964696666766F6C7433001A
:103240000A0D204869676820566F6C74203D202560
:10325000642025642025640A0D0000000A0D2D2D30
:103260002D2D2D2D2D2D2D2D2D2D2D2D2D2025646C
:10327000202564202564202D2D2D2D2D2D2D2D2D47
:103280002D2D2D2D2D2D2D2D2D2D0A0D0000000065
:10329000706663766F6C740002D138207FE125750B
:1032A000C9E1AFF2E871FB48FDF721F800B300F087
:1032B00033FC99F8081099F80720303989B2AAF838
:1032C000061099F809006423303880B2AAF80C007F
:1032D000303A12FB03F201EB810102EB4101084499
:1032E000B86601F0B1FD707C01283FF4E0AC21E14B
:1032F000E9A1E848FCF7FBFF30B100F00DFC87F8CE
:1033000077500AE04020F7E0E5A1E248FCF7EFFF44
:1033100048B100F001FC87F8778001F095FD707CE2
:103320000128EFD006E1E0A1DA48FCF7E0FF30B178
:1033300000F0F2FB87F8CF500AE04820DCE0DDA186
:10334000D448FCF7D4FF48B100F0E6FB87F8CF8003
:1033500001F07AFD707C0128EFD0EBE0D8A1CD48D8
:10336000FCF7C5FF30B100F0D7FB87F8D1500AE079
:103370004A20C1E0D4A1C748FCF7B9FF48B100F02A
:10338000CBFB87F8D18001F05FFD707C0128EFD086
:10339000D0E0CFA1BF48FCF7AAFF30B100F0BCFBE2
:1033A00087F8D2500AE04B20A6E0CBA1B948FCF741
:1033B0009EFF48B100F0B0FB87F8D28001F044FDD9
:1033C000707C0128EFD0B5E0C5A1B248FCF78FFFB3
:1033D00030B100F0A1FB87F8D4500AE04D208BE01B
:1033E000C2A1AC48FCF783FF48B100F095FB87F819
:1033F000D48001F029FD707C0128EFD09AE0BEA1B5
:10340000A448FCF774FFC0B100F086FB99F80A10DD
:103410003039AAF8061099F80B0001EB8101303819
:10342000AAF80C0000EB410087F8DB0001F00CFD6E
:10343000707C01287ED152205EE0B2A19548FCF755
:1034400056FF50B100F068FB87F81C5101F0FCFCFE
:10345000707C01286ED15B204EE0ACA18D48FCF75A
:1034600046FF50B100F058FB87F81C8101F0ECFCDE
:10347000707C01285ED15C203EE0A6A18548FCF767
:1034800036FF50B100F048FB87F81D5101F0DCFC1D
:10349000707C01284ED15D202EE0A0A17D48FCF774
:1034A00026FF50B100F038FB87F81D8101F0CCFCFD
:1034B000707C01283ED15E201EE09AA17548FCF781
:1034C00016FF50B100F028FB87F81E5101F0BCFC3C
:1034D000707C01282ED15F200EE094A16D48FCF78E
:1034E00006FF60B100F018FB87F81E8101F0ACFC0C
:1034F000707C01281ED160202070FEF756BE8DA181
:103500006448FCF7F4FE4FF0640928B100F004FBB6
:1035100087F81F5109E00DE089A15E48FCF7E7FE3E
:1035200058B100F0F9FA87F81F8101F08DFC707C2A
:10353000012818D000F0F0FA7FE084A15548FCF78C
:10354000D6FE4FF0650920B100F0E6FA87F8205169
:10355000EBE781A14F48FCF7CAFE38B100F0DCFA76
:1035600087F82081E1E784F80090C6E77DA149480B
:10357000FCF7BDFE18B100F0A3F9757309E0AFF2D6
:10358000DC314448FCF7B3FE58B100F099F986F8F5
:103590000D8001F025FB707C01284CD11220207099
:1035A0007DE6AFF2F8313B48FCF7A1FE20B100F018
:1035B00087F9F571FFF7E3BBAFF208413548FCF737
:1035C00096FE38B100F07CF986F80780F2E784F8BF
:1035D00000B064E665A12F48FCF789FE18B100F041
:1035E0006FF9357008E063A12A48FCF780FE50B1FE
:1035F00000F066F986F8008001F0F2FA707C01288C
:1036000019D125704BE65DA12248FCF770FE052715
:1036100018B100F055F9F57208E05AA11D48FCF701
:1036200066FEA0B100F04CF986F80B8001F0D8FAE4
:10363000707C012820D000F043F9C82104A8FCF7D1
:103640004BFE43B00120BDEC048BBDE8F08F4FA1D1
:103650001048FCF74CFE6B2718B100F031F9757477
:10366000E4E74DA10B48FCF742FE38B100F028F921
:1036700086F8118001F0B4FA277010E649A10548D8
:10368000FCF735FE20B100F01BF986F81280CDE77B
:103690008CE00000513A00206F6C6F6E000000005B
:1036A0006F6C6F66000000003270686173656F6E4A
:1036B000000000003270686173656F6600000000F2
:1036C0006F6C7273746F6E006F6C7273746F6600E0
:1036D00064727273746F6E0064727273746F6600DA
:1036E0006D616E75616C6F6E000000006D616E75CE
:1036F000616C6F660000000064726F636375726EC8
:10370000627200006374726F6E0000006374726F07
:10371000660000006374796F6E0000006374796F57
:10372000660000006374626F6E0000006374626F75
:10373000660000006175746F727374326F6E000002
:103740006175746F727374326F6600006D6F6269B9
:103750006C657273746F6E006D6F62696C65727305
:10376000746F660070777276626F6E00736D736F40
:103770006E000000736D736F660000007374736DEC
:10378000736F6E007374736D736F66007265737020
:103790006F6E73656F6E0000726573706F6E736528
:1037A0006F6600006C6F72616F6E00000AA10C48BA
:1037B000FCF79DFD18B100F083F8B57436E709A158
:1037C0000748FCF794FD00283FF4B6AE00F078F807
:1037D0000220B0742AE7000067736D6F6E0000006E
:1037E000513A0020776966696F6E000010B51021AC
:1037F0003220FEF765F9244B9870981CFEF790F87C
:1038000011213220FEF75CF95870581CFEF788F839
:1038100012213220FEF754F918701B48FEF780F889
:1038200014213220FEF74CF9D870D81CFEF778F836
:1038300015213220FEF744F91871181DFEF770F8B3
:1038400016213220FEF73CF95871581DFEF768F832
:103850000E480078012816D11C4693F9023094F9DD
:10386000012094F900100AA001F078FD94F90530C8
:1038700094F9042094F90310BDE810400AA003F560
:10388000FA6301F06BBD10BDA90100208A00002081
:1038900054494D453A253032643A253032643A2550
:1038A0003032640900000000444154453A2025307C
:1038B00032642F253032642F253034640A00000032
:1038C0002DE9F047A6B098216846FCF705FD982140
:1038D0006846FCF701FD64224FF478316846FCF736
:1038E000E2FC6846FCF721FD8046024669467DA061
:1038F000FDF752FEDFF80CA2804E814C0AF5967956
:103900000025A9F1AC07B8F10A0F21DAB571F571FC
:1039100035722570E5726570A570E5702571657169
:10392000A57125736573E5712572657286F8D350AC
:10393000F5667D638AF8645089F8005089F8015073
:1039400089F8025089F80350681E26B0BDE8F08758
:103950006DA16846FCF7FAFC7D8001466B4D0EE0D8
:10396000788800EB800005EB8000FCF7E5FC7888A8
:1039700065A1401C78800020FCF7E8FC0146002986
:10398000EED16248143002F0ABFF20705F4828305F
:1039900002F0A6FF60705D483C3002F0A1FFA0700D
:1039A0005A48503002F09CFFE0705848643002F0F2
:1039B00097FF20715548783002F092FF60715348AC
:1039C0008C3002F08DFFA0715048A03002F088FFCB
:1039D000E0714E48B43002F083FF20724B48C8308B
:1039E00002F07EFF60724948DC3002F079FF86F811
:1039F000D3004648F03002F073FFF066444802F00E
:103A00006FFF78634248143002F06AFFA0724048AA
:103A1000283002F065FFE0723D483C3002F060FF64
:103A2000B0713B48503002F05BFFF07138486430B1
:103A300002F056FF30723648783002F051FF8AF8B3
:103A4000640033480AF14B058C3002F049FFA87638
:103A50002F48A03002F044FF20732D48B43002F00C
:103A60003FFF60732A48C83002F03AFF89F800002F
:103A700027484E46DC3002F033FF70702448F030A7
:103A800002F02EFFB070234802F02AFFF0702148A8
:103A9000143002F025FFA8751E48283002F020FFE0
:103AA000A8771C483C3002F01BFF05F80F0C1948A2
:103AB000503002F015FFE8771648643002F010FF2E
:103AC000E0731448783002F00BFF207411488C30FA
:103AD00002F006FFA0740F48A03002F001FF6074EE
:103AE000002032E75265616453657474696E6773D0
:103AF00046696C653A25733D25640000E80F002097
:103B000040110020780000202C000000513A0020D5
:103B1000553B0020593C00202DE9F0414FF416742C
:103B20002DED0E8BADF51A7D214604A8FCF7D4FBD4
:103B3000214604A8FCF7D0FB22464FF47C3104A8B0
:103B4000FCF7B1FB04A8FCF7F0FB0746024604A90A
:103B5000F7A0FDF721FDFC4E00259FEDFCAB9FED8E
:103B6000FD8BFE4C462F7CDA25706570A570E570E4
:103B700025716571657225736573A573E573257489
:103B80006574A574E57425756575A575E575257667
:103B90006576A5766577A577E57784F8205084F873
:103BA0002150E576257784F822500121F181F289B0
:103BB000A018521C00F8235F45718572C573057506
:103BC000457690B2F0810528F1D384F8415084F80D
:103BD000425084F8435084F8445084F8455084F8A7
:103BE000465084F8475084F8485084F84950E564BA
:103BF000256584F85450A565E565A56684F874507C
:103C000084F8755084F8765084F8775084ED28ABAA
:103C100084ED2AAB84F8CC5084F8CD5084F8CE5093
:103C200084ED20AB84ED22AB84ED24AB84ED26AB98
:103C300084F8D05084F8D15084F8D25084F8D4500D
:103C400084F8D55084F8D65084F8D75084F8D850EA
:103C500084F8D95084F8DA5084F8DB50256665661C
:103C600000E029E084ED388B84ED3A8B84ED3C8BC9
:103C700084ED3E8B84ED408B84ED428B84F81C11E7
:103C800084F81D1184F81E1184F81F1184F8201186
:103C9000C4F82451C4F8285184ED2CAB84ED2EAB2C
:103CA00084F8785084F879500DF51A7D4FF0FF3084
:103CB000BDEC0E8BBDE8F081A9A104A8FCF746FB82
:103CC00001463580A74F0EE0308800EB800007EBFF
:103CD0008000FCF731FB3088A1A1401C308000201F
:103CE000FCF734FB01460029EED19E48143002F067
:103CF000F7FD20709B48283002F0F2FD6070994873
:103D00003C3002F0EDFDA0709648503002F0E8FD26
:103D1000E0709448643002F0E3FD207191487830FF
:103D200002F0DEFD60718F488C3002F0D9FD6072C8
:103D30008C48A03002F0D4FD20738A48B43002F0E1
:103D4000CFFD60738748C83002F0CAFDA073854874
:103D5000DC3002F0C5FDE0738248F03002F0C0FDB7
:103D60002074814802F0BCFD60747F48143002F07A
:103D7000B7FDA0747C48283002F0B2FDE0747A48A8
:103D80003C3002F0ADFD20757748503002F0A8FDC0
:103D900060757548643002F0A3FDA07572487830F4
:103DA00002F09EFDE07570488C3002F099FD20769F
:103DB0006D48A03002F094FD60766B48B43002F09C
:103DC0008FFDA0766848C83002F08AFD60776648AB
:103DD000DC3002F085FDA0776348F03002F080FD12
:103DE000E077624802F07CFD84F822005F481430DE
:103DF00002F076FD84F824005C48283002F070FD63
:103E000084F8290059483C3002F06AFD84F82E00FD
:103E10005648503002F064FD84F833005348643053
:103E200002F05EFD84F838005048783002F058FD0A
:103E300084F83D004D488C3002F052FD84F8250096
:103E40004A48A03002F04CFD84F82A004748B430BC
:103E500002F046FD84F82F004448C83002F040FDCF
:103E600084F834004148DC3002F03AFD84F839002F
:103E70003E48F03002F034FD84F83E003C4802F049
:103E80002FFD84F826003A48143002F029FD84F80A
:103E90002B003748283002F023FD84F830003448E6
:103EA0003C3002F01DFD84F835003148503002F0FE
:103EB00017FD84F83A002E48643002F011FD84F8B2
:103EC0003F002B48783002F00BFD84F8270028488B
:103ED0008C3002F005FD84F82C002548A03002F05B
:103EE000FFFC84F831002248B43002F0F9FC84F879
:103EF00036001F48C83002F0F3FC84F83B001C4831
:103F0000DC3002F0EDFC84F840001948F03002F09B
:103F1000E7FC84F84100174802F0E2FC84F8420014
:103F20001448143002F0DCFC84F84300114823E00C
:103F30005265616454696D657253657474696E6726
:103F4000733A25733D256400F8000020000000004E
:103F500000000000000000000000F03FE80F00201B
:103F60002C000000992E00209D2F0020A130002061
:103F7000A5310020A9320020283002F0B1FC84F8DD
:103F80004400FE4802F0ACFC84F84900FB481430C1
:103F900002F0A6FCE064F948283002F0A1FC20659C
:103FA000F6483C3002F09CFC84F85400F348503052
:103FB00002F096FCA065F148643002F091FCE065E7
:103FC000EE48783002F08CFCA066EC488C3002F0B1
:103FD00087FC84F87400E948A03002F081FC84F882
:103FE0007500E648B43002F07BFC84F87600E348C4
:103FF000C83002F075FC84F87700E048DC3002F04D
:104000006FFCA4F8C800DD48F03002F069FCA4F8A9
:10401000CA00DB4802F064FC84F8CC00D8481430B5
:1040200002F05EFC84F8CD00D548283002F058FC40
:1040300084F8CE00D2483C3002F052FCA4F8C00014
:10404000CF48503002F04CFCA4F8C200CC48783085
:1040500002F046FC84F8D000C9488C3002F040FCE5
:1040600084F8D100C648A03002F03AFC84F8D400AD
:10407000C348B43002F034FC84F8D500C048C830DE
:1040800002F02EFC84F8D600BD48DC3002F028FC9B
:1040900084F8D700BA48F03002F022FC84F8D80047
:1040A000B84802F01DFC84F8D900B648143002F07C
:1040B00017FC84F8DA00B348283002F011FC84F8C9
:1040C000DB00B0483C3002F00BFC2066AD485030BD
:1040D00002F006FC6066AB48643002F001FCA4F814
:1040E0001001A848783002F0FBFBA4F81201A548A3
:1040F0008C3002F0F5FBA4F81401A248A03002F0C5
:10410000EFFBA4F816019F48B43002F0E9FBA4F8D5
:1041100018019C48C83002F0E3FBA4F81A01994842
:10412000DC3002F0DDFB84F81C019648F03002F030
:10413000D7FB84F81D01944802F0D2FB84F81E01DD
:104140009148143002F0CCFB84F81F018E482830CF
:1041500002F0C6FB84F820018B483C3002F0C0FB23
:104160004FF49676C4F82401B04201DDC4F824511E
:104170008548503002F0B4FB9FED84DB9FED85EB6A
:104180009FED86CBC4F82801B04201DDC4F8285168
:104190007D48643002F0A4FBA4F850017A4845340D
:1041A000783002F09DFBA4F80D0177488C3002F0C6
:1041B00097FBA4F80F017448A03002F091FBA4F81B
:1041C00011017148B43002F08BFB20706E48C8308A
:1041D00002F086FB60706C48DC3002F081FBA0705E
:1041E0006948F03002F07CFBE0706E48473402F022
:1041F00077FB84F84600A08F00EE100AB8EE400A64
:104200009FED699A20EE090A10EE100AFCF741FBB7
:10421000C4E90501E08F00EE100AB8EE400A20EE76
:10422000090A10EE100AFCF734FBC4E90701A08E5E
:1042300000EE100AB8EE400A20EE090A10EE100A4D
:10424000FCF727FB44E90301E08E00EE100AB8EE0C
:10425000400A20EE090A10EE100AFCF71AFB44E9A6
:104260000101208FFCF7EFFA9FED509B53EC192BC7
:10427000FCF7F7F9C4E90901608FFCF7E4FA53ECA5
:10428000192BFCF7EEF9C4E90B01B4F88400FCF734
:10429000DAFA9FED489B53EC192BFCF7E2F9C4E9DD
:1042A0001501B4F88600FCF7CEFA53EC192BFCF795
:1042B000D8F9C4E91701B4F88800FCF7C4FA53EC44
:1042C000192BFCF7CEF9C4E91901B4F88A00FCF700
:1042D000BAFA53EC192BFCF7C4F941EC1B0B84ED33
:1042E0001BBBB4F88C00FCF7AEFA53EC192BFCF7AF
:1042F000B8F9C4E91D0105460E46B4F88E00FCF776
:10430000A2FA53EC192BFCF7ACF9C4E91F010746DC
:104310008846B4F8C400FCF796FA53EC192BFCF766
:10432000A0F9C4E92901B4F8C600FCF78CFA53ECF3
:10433000192BFCF796F9C4E92B01B4F8C800FCF777
:1043400082FA53EC192BFCF78CF9C4F8B40044F84A
:10435000B81F608AFCF777FA53EC192BFCF781F948
:10436000C4E901018DE8E00153EC1B2B13A0FDF71C
:1043700013F914ED190B53EC1A2B2DE0E532002044
:10438000E9330020ED340020F1350020000000006A
:10439000000024400000000000408F4000000000AA
:1043A00000001440F5360020CDCCCC3D9A99999967
:1043B0009999B93F2D431CEBE2361A3F0A0D436130
:1043C0006C632C25302E34662C25302E34662C253B
:1043D000302E34660A0D000051EC100BA4F5A274C7
:1043E000FCF76AFA08D994ED380B53EC1D2B51EC0D
:1043F000100BFCF779FA01D884ED388B94ED3A0B69
:1044000053EC1A2B51EC100BFCF756FA08D994ED2B
:104410003A0B53EC1D2B51EC100BFCF765FA01D84D
:1044200084ED3A8B94ED3C0B53EC1A2B51EC100BB2
:10443000FCF742FA08D994ED3C0B53EC1D2B51ECE0
:10444000100BFCF751FA01D884ED3C8B94ED3E0B38
:1044500053EC1A2B51EC100BFCF72EFA08D994ED03
:104460003E0B53EC1E2B51EC100BFCF73DFA01D820
:1044700084ED3E8B94ED400B53EC1A2B51EC100B5A
:10448000FCF71AFA08D994ED400B53EC1E2B51ECB3
:10449000100BFCF729FA01D884ED408B94ED420B08
:1044A00053EC1A2B51EC100BFCF706FA08D994EDDB
:1044B000420B53EC1E2B51EC100BFCF715FA01D8F4
:1044C00084ED428B94ED4C0B53EC1A2B51EC100BFA
:1044D000FCF7F2F908D994ED4C0B53EC1C2B51EC82
:1044E000100BFCF701FA01D284ED4C8B94ED4E0BCE
:1044F00053EC1A2B51EC100BFCF7DEF908D994EDB4
:104500004E0B53EC1C2B51EC100BFCF7EDF901D2C8
:1045100084ED4E8B94ED500B53EC1A2B51EC100B99
:10452000FCF7CAF908D994ED500B53EC1C2B51EC55
:10453000100BFCF7D9F901D284ED508B94ED520B9E
:1045400053EC1A2B51EC100BFCF7B6F908D994ED8B
:10455000520B53EC1C2B51EC100BFCF7C5F901D29C
:1045600084ED528B0DF51A7D0020BDEC0E8BBDE85D
:10457000F08100002DE9F0474FF04025D5F84001CB
:1045800020F0F000C5F840010120FCF7FBFD012000
:10459000FCF76AFF3F48FCF78BFE11208407C4F844
:1045A00034023D4E3046FCF735FD3C48FCF732FD09
:1045B0003B48FCF72FFD3B48FCF72CFD0022114641
:1045C0003046FCF7E9FE384F3846FCF723FD4FF440
:1045D000E026324600213846FCF7DEFE334F3846EF
:1045E000FCF718FDDFF8C8804046FCF713FDDFF844
:1045F000C4904846FCF70EFDDFF8BCA05046FCF71F
:1046000009FD002211463846FCF7C6FE002261145F
:104610004046FCF7C1FE002231464846FCF7BCFE8E
:10462000002211465046FCF7B7FEE06B20F47F00F5
:10463000E063E06B40F4CC00E063206B6FF30F00AD
:104640002063206B48F6880108432063206C20F427
:104650007F002064206C40F408002064286C6FF315
:104660000D002864A06B00F07040A063A06B13499C
:104670000843A063206B20F47F0040F419002063FE
:10468000686A40F030006862686C40F4FE0068645C
:10469000BDE8F08700B0710B103D8057913DA057E9
:1046A000123C8C77080000401CFE03400200805E34
:1046B0000300C05E0400005F0500405F111111019E
:1046C000592110B5880716228823C0F80011C0F8B8
:1046D0000021C0F80031D0F80041002CF5D010BD09
:1046E00006498A691202FCD40A2804D10D220A6004
:1046F0008A691202FCD4086070470000000007407D
:1047000013B56C46A01CFCF76FFC9DF8022010212D
:104710003220FDF723F9601CFCF766FC9DF80120B0
:1047200011213220FDF71AF96846FCF75DFC9DF86F
:10473000002012213220FDF711F9E01CFCF754FC97
:104740009DF8032014213220FDF708F9201DFCF705
:104750004BFC9DF8042015213220FDF7FFF8601D69
:10476000FCF742FC9DF8052016213220FDF7F6F8F3
:10477000FFF73CF89DF90000002807DC9DF90100D7
:10478000002803DC9DF9020000280BDD9DF90300E1
:10479000002807DD9DF90400002803DD9DF90500D0
:1047A000002802DC4FF0FF301CBD00201CBD0000C3
:1047B00010B5FCF755FD0E4A4FF080439060D3F8DA
:1047C000101201F00701022903D002F10C0050F889
:1047D0002100D3F8201201F00F01491CB0FBF1F0C9
:1047E0000449106008444900B0FBF1F0506010BD6E
:1047F0000000002020A107001A48016841F4700160
:1048000001601948C16C21F00F0141F00801C16439
:104810004FF08040D0F8981241F48021C0F89812EF
:10482000D0F8081241F00201C0F808120F49D1F87F
:10483000042102F0F732C1F80421D1F8082102F076
:10484000F732C1F80821D0F8081221F00201C0F8AF
:1048500008124FF04020D0F8401121F0F001C0F8CC
:104860004011704788ED00E000C000400010044097
:1048700010B588B00446202217496846FBF713FD9F
:10488000164A174B9003944204D1D0F81402C0F397
:10489000022110E09C4204D1D0F81402C0F302318E
:1048A00009E01049D0F814028C4202D1C0F3024151
:1048B00001E0C0F30251022903D05DF8210008B0E5
:1048C00010BD944201D09C4202D1FCF763FCF6E794
:1048D000FCF792FCF3E70000846D00000000054047
:1048E000000105400010054070B516460D4604460F
:1048F000FFF7BEFF0023B6EB500F01D9022206E0FE
:10490000B0FBF6F2130E02D0591CB2FBF1F21D43BC
:10491000256062605B1C5A43B0FBF2F070BD000082
:1049200005498868C0F30000002803D00120886092
:104930000249087170470000000005402C0000206B
:1049400005498868C0F30000002803D00120886072
:104950000249C87070470000000105402C0000208B
:1049600070B50122144CD50629462046FFF7BCFF3E
:10497000206840F0005020602020FDF7DFF8294635
:104980000E4D01222846FFF7AFFFD4F8000120F0BA
:10499000FF00C01DC4F800010948C4F8040121202B
:1049A000FDF7CCF80749102081F80004286840F092
:1049B0000050286070BD0000000005400001054067
:1049C00080EE360021E000E002F066B910B5074C39
:1049D0004FF4E131204600F037F80121204600F085
:1049E0002FF8BDE810402420FDF7A8B800000740CC
:1049F00001F068B910B5074C4FF4E131204600F0E2
:104A000023F80121204600F01BF8BDE810402520C6
:104A1000FDF794B8001007407047000010B5074C30
:104A20004FF41651204600F00FF80121204600F007
:104A300007F8BDE810403020FDF780B8002007409F
:104A400042680A43426070472DE9FF4104464D48E1
:104A50000F4600250FC88DE80F004B492E464FF03A
:104A600080408C4206D1D0F81412D0F82002C1F355
:104A700001652AE045498C4206D1D0F81412D0F8DD
:104A80002002C1F381652BE041498C4208D1D0F866
:104A90001C12D0F83002C1F3016500F00F0644E0AB
:104AA0003C498C4208D1D0F81C12D0F83002C1F336
:104AB0008165C0F3031638E037498C4208D1D0F83D
:104AC0001C12D0F83002C1F30175C0F303262CE0AC
:104AD00032498C4207D1D0F81C12D0F830028D0F29
:104AE000C0F3033621E02E498C4204D1D0F8F411F2
:104AF000C9B2012908D02B498C4216D1D0F8F41143
:104B0000C9B2012909D010E0D0F81C12D0F8300247
:104B1000C1F30155C0F3034607E0D0F81C12D0F8EA
:104B20003002C1F38155C0F30356002020630320F7
:104B3000E060A0681C490840A060E846012D02D151
:104B4000FCF78EFB0190002F1AD058F82510761C28
:104B5000B1FBF6F000EB5700B0FBF7F0801EB0F5AC
:104B6000803F0AD3B1FBF6F000EBC700B0FBF7F0D3
:104B70006FF0010101EB101001E040F04050606265
:104B8000BDE8FF81546D00000000074000100740A1
:104B90000020074000300740004007400050074019
:104BA00000600740007007400FFFF0FF70B504463B
:104BB000FBF7BBFB05460146204601F03BF9074ADF
:104BC0006055691C24201060002002E0235C136003
:104BD000401C8842FAD30D20106070BD00000740D1
:104BE0002DE9F043ADF2C46D4FF4FA75294620A8C3
:104BF000FBF772FB29469DA8FBF76EFB0024FFF72D
:104C00005FFDFCF78DFD4FF47836304601F0B4FFC0
:104C1000002802DA59A0FCF7BFFC3046FCF71AFD69
:104C20004FF0FF3918B15FA0FCF7B6FC8AE02946C7
:104C300020A8FBF751FB4FF416710DF58D60FBF7C3
:104C40004BFB63480DF17008C17B877C437C027C81
:104C500088E88E005F490DF1600891F8612091F8B5
:104C60006AC091F83C7091F8693088E88C1001F5C1
:104C700096720DF1500892F903C092F9027092F900
:104C8000013092F9002088E88C1091F86570437B20
:104C9000027B91F86410CDE910174F49CDE912233A
:104CA000C27A0DF1300891F808C0CF798B7988E885
:104CB0008C10484B827A80330DF120085F6BCB6EED
:104CC00091F8D3100B9288E88A0081790DF11008D1
:104CD000477A037AC27988E88E0081784779037928
:104CE000C2788DE88E00437802783C4920A800F015
:104CF00045FB20A8FBF719FB024620A938A0FCF7CA
:104D00004BFC0020014620AA0DF58D6702EB000C3C
:104D100007EB8103001D491CDCF800C080B2C3F81A
:104D200000C089B2A842F1D3B04635464FF47A3676
:104D300057F824102846FCF73BFD40B129462FA028
:104D4000FCF72AFC48460DF2C46DBDE8F083641CF4
:104D50002D1DA4B2B542EBD34FF4C87241469DA8B5
:104D6000FBF7A1FA9DA92DA0FCF716FCFCF76AFC45
:104D70004FF080410020C1F80001E4E74661696C12
:104D8000656420746F2073657420446174612046EB
:104D90006C6173682062617365206164647265731D
:104DA00073210A00464D435F457261736520534588
:104DB0005454494E47535F46494C455F4241534521
:104DC0005F5341444452206661696C6564210A0066
:104DD0004011002078000020E80F00202C6E000019
:104DE0000A73657474696E67735F6275663A2573DA
:104DF0002D6C656E3A25640A00000000464D435F45
:104E000057726974652061646472657373203078C9
:104E10002578206661696C6564210A000A5365740F
:104E200074696E67732066696C65206461746120C3
:104E3000616674657220666C61736820777269744C
:104E4000653A25730A0000002DE9F0472DED028B2D
:104E5000ADF50B6D4FF41676314638A8FBF73CFAEA
:104E60003146CEA8FBF738FA0025FFF729FCFCF7FE
:104E700057FC4FF47C373846FCF7ECFB4FF0FF3A19
:104E800018B1FCA0FCF788FB1FE2314638A8FBF7FD
:104E900023FA4FF448710DF5B260FBF71DFA314665
:104EA00038A8FBF719FAFE4C94ED280B9FEDFD8B0B
:104EB00051EC100B53EC182B2434FBF7D2FBFBF70F
:104EC000CFFCA4F8A40094ED210B53EC182B51EC6B
:104ED000100BFBF7C6FBFBF7C3FCA4F8A60094ED90
:104EE000170B53EC182B51EC100BFBF7BAFBFBF72D
:104EF000B7FCA4F89C0094ED190B53EC182B51EC63
:104F0000100BFBF7AEFBFBF7ABFCA4F89E0094ED97
:104F10002F0B9FEDE68B51EC100B53EC182BFBF78E
:104F2000A0FBFBF79DFCA4F8EC0094ED310B53ECD7
:104F3000182B51EC100BFBF794FBFBF791FCA4F83A
:104F4000EE0094ED330B53EC182B51EC100BFBF7E8
:104F500088FBFBF785FCA4F8F00094ED350B53ECCF
:104F6000182B51EC100BFBF77CFBFBF779FCA4F83A
:104F7000F20094ED370B53EC182B51EC100BFBF7B0
:104F800070FBFBF76DFCA4F8F40094ED390B53ECC7
:104F9000182B51EC100BFBF764FBFBF761FCA4F83A
:104FA000F60094ED430B53EC182B51EC100BFBF770
:104FB00058FBFBF755FCA4F82C0194ED450B53EC82
:104FC000182B51EC100BFBF74CFBFBF749FCA4F83A
:104FD0002E0194ED470B53EC182B51EC100BFBF703
:104FE00040FBFBF73DFCA4F8300194ED490B53EC7A
:104FF000182B51EC100BFBF734FBFBF731FCA4F83A
:105000003201607B0DF1B008237FE27DA17C88E84E
:105010000F00A07D0DF1A008237AE278E17E88E8F8
:105020000F00A0780DF19008637C227BE17988E87D
:105030000F00E07A0DF18008A37E627D217C88E874
:105040000F00207D0DF17008A3796278617E88E8F9
:105050000F0020780DF16008E37BA27A617988E87F
:105060000F0014F8070C0DF1500814F8023C14F866
:10507000052C14F8061C88E80F0014F80D0C0DF12F
:10508000400814F80A3C14F80B2C14F80C1C88E89F
:105090000F0014F8110C0DF1300814F80E3C14F840
:1050A0000F2C14F8101C88E80F0014F8150C0DF1E3
:1050B000200814F8123C14F8132C14F8141C88E877
:1050C0000F0014F81B0C0DF1100814F8163C14F81E
:1050D000172C14F8181C88E80F0014F8220C14F888
:1050E0001F3C14F8202C14F8211C8DE80F0014F834
:1050F000233C14F8242C6F4938A800F03FF994F8A9
:1051000022000DF1D00894F8AE3094F8242094F8E1
:10511000231088E80F00B4F82E010DF1C00894F8B0
:105120002130B4F83221B4F8301188E80F00D4E906
:10513000401294F8FC000DF1B008B4F82C3188E866
:105140000F0094F8F8000DF1A00894F8FB3094F8E3
:10515000FA2094F8F91088E80F00B4F8F0000DF187
:105160009008B4F8F630B4F8F420B4F8F21088E8F7
:105170000F00B4F8EE30B4F8EC20D4E90F010DF1D3
:10518000800888E80F0094F8B4000DF1700894F8D6
:10519000B73094F8B62094F8B51088E80F0094F86A
:1051A000B0000DF1600894F8B33094F8B22094F890
:1051B000B11088E80F00B4F89E000DF1500894F883
:1051C000AD3094F8AC2094F8AB1088E80F0094F858
:1051D000A8000DF14008B4F89C3094F8AA2094F887
:1051E000A91088E80F0094F852000DF13008B4F8C7
:1051F000A630B4F8A42094F8531088E80F000DF1FD
:105200002008A06B94F8513094F85020616C88E825
:105210000F0094F83020D4E90A010DF11008636BF7
:1052200088E80F00A07F94F8253094F82020E17FD3
:105230008DE80F0038AA637F1F49104600F09EF8E2
:105240000020014638AA0DF5B26402EB000C04EB15
:105250008103001D491CDCF800C080B2C3F800C007
:1052600089B2B042F1D3B9464FF47E3854F82510D4
:10527000384623E0464D435F4572617365205345D0
:105280005454494E47535F46494C455F424153454C
:105290005F5341444452206661696C6564210A0091
:1052A000E80F002000000000000024400000000083
:1052B0000088C340A46E0000A46F0000FCF778FAD9
:1052C00050B1394612A0FCF767F950460DF50B6D49
:1052D000BDEC028BBDE8F0876D1C3F1DADB24745AC
:1052E000C4D332464946CEA8FAF7DDFF38A8FBF70B
:1052F0001CF80246CEA90EA0FCF74EF9FCF7A2F965
:105300004FF080410020C1F800010DF50B6DDFE783
:10531000464D435F577269746520616464726573BA
:10532000732030782578206661696C6564210A00F5
:105330000A54696D657253657474696E6773206190
:105340006674657220666C61736877726974653A19
:1053500025733D6C656E3A25640A00000FB4054B59
:1053600010B503A9044A029800F004F910BC5DF8D6
:1053700014FB0000A95E0000D40E00200FB4084BFF
:1053800010B504A902AA039800F0F4F8044602A993
:10539000002000F091FC204610BC5DF814FB0000DA
:1053A000B95C00007CB5044600201D461646002965
:1053B0000BD0491ECDE90041044B6A4629463046D0
:1053C00000F0D8F8009A002111707CBDA35C0000A9
:1053D00002E008C8121F08C1002AFAD170477047BE
:1053E000002001E001C1121F002AFBD1704700001C
:1053F0002DE9FF5F82B00021DDE90430020DDDF808
:1054000040B0034318D044F61050A2F2FF3242439A
:105410001514119801281FD0A5EB0B00401C5FEA62
:10542000000A4FF000064E4FDFF83891B046504664
:1054300015D5CAF1000413E0119801244AA30128EC
:1054400001D16FEA0B010298119AC0E90031C0E95D
:10545000024206B0BDE8F09FCBF10000DFE7044652
:105460000021404A491842EB0450CDE9001012E0F7
:10547000E00707D032463B4640464946FBF7F1F885
:105480008046894632463B4610461946FBF7E9F806
:1054900006460F466410002CEAD1DDE90401DDE97F
:1054A0000023BAF1000F06DAFBF7DBF842464B4661
:1054B000FBF7D7F805E0FBF746F942464B46FBF70A
:1054C00042F904460E460022284BFBF70DFA03D89A
:1054D0004FF0FF30014607E00022254B20463146C1
:1054E000FBF718F8FBF782FB102409E0002C0ADB1D
:1054F0000A220023FBF742FA039B30321A55641E3E
:1055000050EA0102F2D1641C039AC4F1110314445D
:10551000119A012A03D0012208430DD10AE0084361
:1055200004D000204FF0110B119072E7A3EB0B0594
:105530006D1E0DE05B4504DD4FF0000205F1010535
:1055400004E003DA4FF00002A5F10105002AECD0D7
:1055500002981199C0E90231C0E9004579E70000DD
:10556000000014400000F03F300000000000F04355
:105570000000E03F2DE9FF4F95B09B468946064667
:1055800000250FE2252877D100242746F84A01217B
:10559000059400E0044316F8013F203B01FA03F0B4
:1055A0001042F7D130782A2811D06FF02F033078CD
:1055B000A0F13002092A16D8059A44F0020402EB41
:1055C000820203EB42021044761C0590EFE759F883
:1055D000042B0592002A03DA504244F4005405904B
:1055E00044F00204761C30782E2816D116F8010FEC
:1055F00044F004042A280DD06FF02F023078A0F177
:105600003003092B09D807EB870302EB4303C718C4
:10561000761CF3E759F8047B761C30786C280FD0A1
:1056200006DC4C2817D068280DD06A2814D104E075
:10563000742810D07A280FD10DE044F400140AE049
:1056400044F4801401E044F440147278824202D1A0
:1056500004F58014761C761C307866280BD013DC99
:10566000582877D009DC002875D04528F6D0462880
:10567000F4D047281AD19DE118E0632835D064287A
:1056800079D0652812D195E1702873D008DC67289D
:10569000F1D069286FD06E280DD06F2806D1B5E003
:1056A00073282CD0752875D0782874D05A4617994D
:1056B00090476D1C75E1C4F30250022809D00328FD
:1056C0000DD0D9F8001004280DD00D6009F104099F
:1056D00067E1D9F80010EA17C1E90052F6E7D9F8F6
:1056E00000100D80F2E70D70F0E719F8041B8DF83B
:1056F000001000208DF80100EA46012003E059F86F
:1057000004AB4FF0FF3061074FF0000102D40DE011
:1057100008F101018846B9420FDA8045F8DB1AF832
:1057200008100029F4D108E008F1010188468142FF
:10573000FADB1AF808100029F6D105985B46A0EBB1
:10574000080721463846179A00F094FA284400EBDF
:10575000080507E04DE029E10DE01AF8010B5A4673
:1057600017999047B8F10108F7D25B4621463846B1
:10577000179A13E142E00A220092C4F302524FF05A
:10578000000A022A08D059F804CB032A4FEAEC7128
:105790000AD00DE029E02AE009F1070121F0070213
:1057A000F2E802C1914609E00FFA8CFC4FEAEC7175
:1057B000042A03D14FFA8CFC4FEAEC71002907DA76
:1057C0000A460021DCF1000C61EB02012D2202E00F
:1057D000220504D52B228DF80420012203E0E207E4
:1057E00001D02022F7E7904659E00A2102E010227A
:1057F0000DE010214FF0000A00910BE010224FF055
:10580000000A44F004040827009203E008224FF045
:10581000000A0092C4F30252022A05D059F804CBC0
:105820000021032A08D009E009F1070121F007024D
:10583000F2E802C1914605E01FFA8CFC042A01D16E
:105840000CF0FF0C4FF00008220728D5702806D076
:10585000009B83F0100353EA0A0305D00EE04022B8
:105860008DF80420012208E05CEA010206D0302213
:105870008DF804208DF8050002229046009B83F0ED
:10588000080353EA0A030AD15CEA010201D1620764
:1058900005D530228DF804204FF001087F1E5828CE
:1058A00004D034A003900EA802900DE036A0F9E7D2
:1058B00053466046009AFBF761F884460398825C81
:1058C0000298401E029002705CEA0100F0D102983A
:1058D00006A9081A00F1200A600702D524F48034D2
:1058E00000E00127574502DDA7EB0A0000E0002099
:1058F00000EB0A01009005984144401A0590E0032E
:1059000006D45B462146179A059800F0B3F9054482
:10591000002706E001A85A46C05D179990476D1C04
:105920007F1C4745F6DBE0030CD55B462146179A02
:10593000059800F09FF9054404E030205A46179975
:1059400090476D1C0099481E00900029F5DC08E086
:10595000029802995A460078491C0291179990477B
:105960006D1CBAF10001AAF1010AF1DC65E1000049
:105970000928010030313233343536373839616225
:1059800063646566000000003031323334353637E9
:1059900038394142434445460000000000F058F9C0
:1059A0000544761C307800287FF4ECAD19B0284609
:1059B000BDE8F08F620700D4062709F1070222F044
:1059C000070CFCE80223E14603F000485FEA080CFC
:1059D00002D00FF2702C0DE05FEA045C02D50FF2EA
:1059E000682C07E05FEAC47C02D00FF2602C01E073
:1059F000AFF2700C4FF0FF3823F00043CDF850C0E9
:105A000065280CD006DC452809D046281DD047283B
:105A10003DD13DE0662818D067287ED138E00021CE
:105A2000112F01DB112000E0781CCDE9000106A94F
:105A30000EA8FFF7DDFCDDE90F010E9A03910021AE
:105A4000009207F1010A04914DE04FF000400097E9
:105A5000CDE9011006A90EA8FFF7CAFCDDE90F0287
:105A600003920E9B11990022DDF80CA00093049282
:105A700011B9791C00EB010AB7EB0A0004D4C0F19C
:105A8000FF3007F1010A0490AAEB0700019044E0FF
:105A9000012F00DA01270021112F01DD112000E084
:105AA0003846CDE9000106A90EA8FFF7A1FCDDE903
:105AB0000F010E9A0391002104910092BA4621072A
:105AC0000CD40399514500DA8A46BAF1010F05DD7D
:105AD000009AAAF10101515C302908D0B84202DADB
